{
  "_format": "hh-sol-artifact-1",
  "contractName": "SafeVoteV2",
  "sourceName": "contracts/SafeVoteV2.sol",
  "abi": [
    {
      "inputs": [],
      "stateMutability": "nonpayable",
      "type": "constructor"
    },
    {
      "inputs": [
        {
          "internalType": "address",
          "name": "target",
          "type": "address"
        }
      ],
      "name": "AddressEmptyCode",
      "type": "error"
    },
    {
      "inputs": [
        {
          "internalType": "address",
          "name": "implementation",
          "type": "address"
        }
      ],
      "name": "ERC1967InvalidImplementation",
      "type": "error"
    },
    {
      "inputs": [],
      "name": "ERC1967NonPayable",
      "type": "error"
    },
    {
      "inputs": [],
      "name": "EnforcedPause",
      "type": "error"
    },
    {
      "inputs": [],
      "name": "ExpectedPause",
      "type": "error"
    },
    {
      "inputs": [],
      "name": "FailedCall",
      "type": "error"
    },
    {
      "inputs": [],
      "name": "InvalidInitialization",
      "type": "error"
    },
    {
      "inputs": [],
      "name": "NotInitializing",
      "type": "error"
    },
    {
      "inputs": [
        {
          "internalType": "address",
          "name": "owner",
          "type": "address"
        }
      ],
      "name": "OwnableInvalidOwner",
      "type": "error"
    },
    {
      "inputs": [
        {
          "internalType": "address",
          "name": "account",
          "type": "address"
        }
      ],
      "name": "OwnableUnauthorizedAccount",
      "type": "error"
    },
    {
      "inputs": [],
      "name": "ReentrancyGuardReentrantCall",
      "type": "error"
    },
    {
      "inputs": [],
      "name": "UUPSUnauthorizedCallContext",
      "type": "error"
    },
    {
      "inputs": [
        {
          "internalType": "bytes32",
          "name": "slot",
          "type": "bytes32"
        }
      ],
      "name": "UUPSUnsupportedProxiableUUID",
      "type": "error"
    },
    {
      "anonymous": false,
      "inputs": [
        {
          "indexed": true,
          "internalType": "uint256",
          "name": "electionId",
          "type": "uint256"
        },
        {
          "indexed": false,
          "internalType": "uint256",
          "name": "voteCount",
          "type": "uint256"
        },
        {
          "indexed": false,
          "internalType": "uint256",
          "name": "timestamp",
          "type": "uint256"
        }
      ],
      "name": "BatchVoteSubmittedV2",
      "type": "event"
    },
    {
      "anonymous": false,
      "inputs": [
        {
          "indexed": true,
          "internalType": "uint256",
          "name": "electionId",
          "type": "uint256"
        },
        {
          "indexed": true,
          "internalType": "address",
          "name": "creator",
          "type": "address"
        },
        {
          "indexed": false,
          "internalType": "uint256",
          "name": "timestamp",
          "type": "uint256"
        }
      ],
      "name": "ElectionCancelledV2",
      "type": "event"
    },
    {
      "anonymous": false,
      "inputs": [
        {
          "indexed": true,
          "internalType": "uint256",
          "name": "electionId",
          "type": "uint256"
        },
        {
          "indexed": false,
          "internalType": "uint256",
          "name": "totalVotes",
          "type": "uint256"
        },
        {
          "indexed": false,
          "internalType": "uint256",
          "name": "timestamp",
          "type": "uint256"
        }
      ],
      "name": "ElectionCompletedV2",
      "type": "event"
    },
    {
      "anonymous": false,
      "inputs": [
        {
          "indexed": true,
          "internalType": "uint256",
          "name": "electionId",
          "type": "uint256"
        },
        {
          "indexed": true,
          "internalType": "address",
          "name": "creator",
          "type": "address"
        },
        {
          "indexed": false,
          "internalType": "string",
          "name": "title",
          "type": "string"
        },
        {
          "indexed": false,
          "internalType": "uint256",
          "name": "startTime",
          "type": "uint256"
        },
        {
          "indexed": false,
          "internalType": "uint256",
          "name": "endTime",
          "type": "uint256"
        },
        {
          "indexed": false,
          "internalType": "uint256",
          "name": "timestamp",
          "type": "uint256"
        }
      ],
      "name": "ElectionCreatedV2",
      "type": "event"
    },
    {
      "anonymous": false,
      "inputs": [
        {
          "indexed": false,
          "internalType": "uint64",
          "name": "version",
          "type": "uint64"
        }
      ],
      "name": "Initialized",
      "type": "event"
    },
    {
      "anonymous": false,
      "inputs": [
        {
          "indexed": true,
          "internalType": "uint256",
          "name": "orgId",
          "type": "uint256"
        },
        {
          "indexed": true,
          "internalType": "address",
          "name": "member",
          "type": "address"
        },
        {
          "indexed": true,
          "internalType": "address",
          "name": "addedBy",
          "type": "address"
        },
        {
          "indexed": false,
          "internalType": "uint256",
          "name": "timestamp",
          "type": "uint256"
        }
      ],
      "name": "MemberAdded",
      "type": "event"
    },
    {
      "anonymous": false,
      "inputs": [
        {
          "indexed": true,
          "internalType": "uint256",
          "name": "orgId",
          "type": "uint256"
        },
        {
          "indexed": true,
          "internalType": "address",
          "name": "member",
          "type": "address"
        },
        {
          "indexed": false,
          "internalType": "uint256",
          "name": "timestamp",
          "type": "uint256"
        }
      ],
      "name": "MemberLeft",
      "type": "event"
    },
    {
      "anonymous": false,
      "inputs": [
        {
          "indexed": true,
          "internalType": "uint256",
          "name": "orgId",
          "type": "uint256"
        },
        {
          "indexed": true,
          "internalType": "address",
          "name": "member",
          "type": "address"
        },
        {
          "indexed": true,
          "internalType": "address",
          "name": "removedBy",
          "type": "address"
        },
        {
          "indexed": false,
          "internalType": "uint256",
          "name": "timestamp",
          "type": "uint256"
        }
      ],
      "name": "MemberRemoved",
      "type": "event"
    },
    {
      "anonymous": false,
      "inputs": [
        {
          "indexed": true,
          "internalType": "uint256",
          "name": "orgId",
          "type": "uint256"
        },
        {
          "indexed": false,
          "internalType": "string",
          "name": "name",
          "type": "string"
        },
        {
          "indexed": true,
          "internalType": "address",
          "name": "admin",
          "type": "address"
        },
        {
          "indexed": false,
          "internalType": "bool",
          "name": "isPublic",
          "type": "bool"
        },
        {
          "indexed": false,
          "internalType": "uint256",
          "name": "timestamp",
          "type": "uint256"
        }
      ],
      "name": "OrganizationCreated",
      "type": "event"
    },
    {
      "anonymous": false,
      "inputs": [
        {
          "indexed": true,
          "internalType": "uint256",
          "name": "orgId",
          "type": "uint256"
        },
        {
          "indexed": false,
          "internalType": "bool",
          "name": "isPublic",
          "type": "bool"
        },
        {
          "indexed": false,
          "internalType": "uint256",
          "name": "timestamp",
          "type": "uint256"
        }
      ],
      "name": "OrganizationVisibilityChanged",
      "type": "event"
    },
    {
      "anonymous": false,
      "inputs": [
        {
          "indexed": true,
          "internalType": "address",
          "name": "previousOwner",
          "type": "address"
        },
        {
          "indexed": true,
          "internalType": "address",
          "name": "newOwner",
          "type": "address"
        }
      ],
      "name": "OwnershipTransferred",
      "type": "event"
    },
    {
      "anonymous": false,
      "inputs": [
        {
          "indexed": false,
          "internalType": "address",
          "name": "account",
          "type": "address"
        }
      ],
      "name": "Paused",
      "type": "event"
    },
    {
      "anonymous": false,
      "inputs": [
        {
          "indexed": true,
          "internalType": "uint256",
          "name": "pollId",
          "type": "uint256"
        },
        {
          "indexed": true,
          "internalType": "uint256",
          "name": "orgId",
          "type": "uint256"
        },
        {
          "indexed": false,
          "internalType": "uint256",
          "name": "winningOption",
          "type": "uint256"
        },
        {
          "indexed": false,
          "internalType": "uint256",
          "name": "winningVotes",
          "type": "uint256"
        },
        {
          "indexed": false,
          "internalType": "uint256",
          "name": "timestamp",
          "type": "uint256"
        }
      ],
      "name": "PollCompleted",
      "type": "event"
    },
    {
      "anonymous": false,
      "inputs": [
        {
          "indexed": true,
          "internalType": "uint256",
          "name": "pollId",
          "type": "uint256"
        },
        {
          "indexed": true,
          "internalType": "uint256",
          "name": "orgId",
          "type": "uint256"
        },
        {
          "indexed": true,
          "internalType": "address",
          "name": "creator",
          "type": "address"
        },
        {
          "indexed": false,
          "internalType": "string",
          "name": "question",
          "type": "string"
        },
        {
          "indexed": false,
          "internalType": "enum SafeVoteV2.PollType",
          "name": "pollType",
          "type": "uint8"
        },
        {
          "indexed": false,
          "internalType": "uint256",
          "name": "endTime",
          "type": "uint256"
        },
        {
          "indexed": false,
          "internalType": "uint256",
          "name": "timestamp",
          "type": "uint256"
        }
      ],
      "name": "PollCreated",
      "type": "event"
    },
    {
      "anonymous": false,
      "inputs": [
        {
          "indexed": false,
          "internalType": "address",
          "name": "account",
          "type": "address"
        }
      ],
      "name": "Unpaused",
      "type": "event"
    },
    {
      "anonymous": false,
      "inputs": [
        {
          "indexed": true,
          "internalType": "address",
          "name": "implementation",
          "type": "address"
        }
      ],
      "name": "Upgraded",
      "type": "event"
    },
    {
      "anonymous": false,
      "inputs": [
        {
          "indexed": true,
          "internalType": "uint256",
          "name": "pollId",
          "type": "uint256"
        },
        {
          "indexed": true,
          "internalType": "uint256",
          "name": "orgId",
          "type": "uint256"
        },
        {
          "indexed": true,
          "internalType": "address",
          "name": "voter",
          "type": "address"
        },
        {
          "indexed": false,
          "internalType": "uint256",
          "name": "optionIndex",
          "type": "uint256"
        },
        {
          "indexed": false,
          "internalType": "uint256",
          "name": "timestamp",
          "type": "uint256"
        }
      ],
      "name": "VoteCast",
      "type": "event"
    },
    {
      "anonymous": false,
      "inputs": [
        {
          "indexed": true,
          "internalType": "uint256",
          "name": "electionId",
          "type": "uint256"
        },
        {
          "indexed": true,
          "internalType": "bytes32",
          "name": "voterKeyHash",
          "type": "bytes32"
        },
        {
          "indexed": true,
          "internalType": "address",
          "name": "voter",
          "type": "address"
        },
        {
          "indexed": false,
          "internalType": "bool",
          "name": "isAnonymous",
          "type": "bool"
        },
        {
          "indexed": false,
          "internalType": "uint256",
          "name": "chainId",
          "type": "uint256"
        },
        {
          "indexed": false,
          "internalType": "uint256",
          "name": "timestamp",
          "type": "uint256"
        }
      ],
      "name": "VoteCastV2",
      "type": "event"
    },
    {
      "anonymous": false,
      "inputs": [
        {
          "indexed": true,
          "internalType": "uint256",
          "name": "electionId",
          "type": "uint256"
        },
        {
          "indexed": true,
          "internalType": "address",
          "name": "delegator",
          "type": "address"
        },
        {
          "indexed": true,
          "internalType": "address",
          "name": "delegate",
          "type": "address"
        },
        {
          "indexed": false,
          "internalType": "uint256",
          "name": "timestamp",
          "type": "uint256"
        }
      ],
      "name": "VoteDelegatedV2",
      "type": "event"
    },
    {
      "anonymous": false,
      "inputs": [
        {
          "indexed": true,
          "internalType": "uint256",
          "name": "pollId",
          "type": "uint256"
        },
        {
          "indexed": false,
          "internalType": "bytes32",
          "name": "keyHash",
          "type": "bytes32"
        },
        {
          "indexed": false,
          "internalType": "uint256",
          "name": "timestamp",
          "type": "uint256"
        }
      ],
      "name": "VotingKeyGenerated",
      "type": "event"
    },
    {
      "inputs": [],
      "name": "UPGRADE_INTERFACE_VERSION",
      "outputs": [
        {
          "internalType": "string",
          "name": "",
          "type": "string"
        }
      ],
      "stateMutability": "view",
      "type": "function"
    },
    {
      "inputs": [
        {
          "internalType": "uint256",
          "name": "orgId",
          "type": "uint256"
        },
        {
          "internalType": "address",
          "name": "member",
          "type": "address"
        }
      ],
      "name": "addMember",
      "outputs": [],
      "stateMutability": "nonpayable",
      "type": "function"
    },
    {
      "inputs": [
        {
          "internalType": "uint256",
          "name": "pollId",
          "type": "uint256"
        },
        {
          "internalType": "address",
          "name": "voter",
          "type": "address"
        }
      ],
      "name": "authorizeVoter",
      "outputs": [],
      "stateMutability": "nonpayable",
      "type": "function"
    },
    {
      "inputs": [
        {
          "internalType": "uint256",
          "name": "orgId",
          "type": "uint256"
        },
        {
          "internalType": "address[]",
          "name": "members",
          "type": "address[]"
        }
      ],
      "name": "batchAddMembers",
      "outputs": [],
      "stateMutability": "nonpayable",
      "type": "function"
    },
    {
      "inputs": [
        {
          "internalType": "uint256",
          "name": "pollId",
          "type": "uint256"
        },
        {
          "internalType": "address[]",
          "name": "voters",
          "type": "address[]"
        }
      ],
      "name": "batchAuthorizeVoters",
      "outputs": [],
      "stateMutability": "nonpayable",
      "type": "function"
    },
    {
      "inputs": [
        {
          "internalType": "uint256",
          "name": "electionId",
          "type": "uint256"
        }
      ],
      "name": "cancelElection",
      "outputs": [],
      "stateMutability": "nonpayable",
      "type": "function"
    },
    {
      "inputs": [
        {
          "internalType": "uint256",
          "name": "electionId",
          "type": "uint256"
        }
      ],
      "name": "completeElection",
      "outputs": [],
      "stateMutability": "nonpayable",
      "type": "function"
    },
    {
      "inputs": [
        {
          "internalType": "uint256",
          "name": "pollId",
          "type": "uint256"
        }
      ],
      "name": "completePoll",
      "outputs": [],
      "stateMutability": "nonpayable",
      "type": "function"
    },
    {
      "inputs": [
        {
          "internalType": "string",
          "name": "title",
          "type": "string"
        },
        {
          "internalType": "string",
          "name": "description",
          "type": "string"
        },
        {
          "internalType": "string",
          "name": "location",
          "type": "string"
        },
        {
          "internalType": "uint256",
          "name": "startTime",
          "type": "uint256"
        },
        {
          "internalType": "uint256",
          "name": "endTime",
          "type": "uint256"
        },
        {
          "internalType": "uint256",
          "name": "totalVoters",
          "type": "uint256"
        },
        {
          "internalType": "bytes32",
          "name": "voterMerkleRoot",
          "type": "bytes32"
        },
        {
          "internalType": "bool",
          "name": "isPublic",
          "type": "bool"
        },
        {
          "internalType": "bool",
          "name": "allowAnonymous",
          "type": "bool"
        },
        {
          "internalType": "bool",
          "name": "allowDelegation",
          "type": "bool"
        },
        {
          "components": [
            {
              "internalType": "string",
              "name": "title",
              "type": "string"
            },
            {
              "internalType": "string[]",
              "name": "candidates",
              "type": "string[]"
            },
            {
              "internalType": "uint256",
              "name": "maxSelections",
              "type": "uint256"
            }
          ],
          "internalType": "struct SafeVoteV2.Position[]",
          "name": "positions",
          "type": "tuple[]"
        }
      ],
      "name": "createElection",
      "outputs": [
        {
          "internalType": "uint256",
          "name": "",
          "type": "uint256"
        }
      ],
      "stateMutability": "nonpayable",
      "type": "function"
    },
    {
      "inputs": [
        {
          "internalType": "string",
          "name": "name",
          "type": "string"
        },
        {
          "internalType": "string",
          "name": "ensName",
          "type": "string"
        },
        {
          "internalType": "bool",
          "name": "isPublic",
          "type": "bool"
        }
      ],
      "name": "createOrganization",
      "outputs": [
        {
          "internalType": "uint256",
          "name": "",
          "type": "uint256"
        }
      ],
      "stateMutability": "nonpayable",
      "type": "function"
    },
    {
      "inputs": [
        {
          "internalType": "uint256",
          "name": "orgId",
          "type": "uint256"
        },
        {
          "internalType": "string",
          "name": "question",
          "type": "string"
        },
        {
          "internalType": "enum SafeVoteV2.PollType",
          "name": "pollType",
          "type": "uint8"
        },
        {
          "internalType": "string[]",
          "name": "options",
          "type": "string[]"
        },
        {
          "internalType": "uint256",
          "name": "durationInSeconds",
          "type": "uint256"
        },
        {
          "internalType": "uint256",
          "name": "requiredQuorum",
          "type": "uint256"
        },
        {
          "internalType": "uint256",
          "name": "numberOfKeys",
          "type": "uint256"
        },
        {
          "internalType": "bool",
          "name": "isAnonymous",
          "type": "bool"
        }
      ],
      "name": "createPoll",
      "outputs": [
        {
          "internalType": "uint256",
          "name": "",
          "type": "uint256"
        }
      ],
      "stateMutability": "nonpayable",
      "type": "function"
    },
    {
      "inputs": [
        {
          "internalType": "uint256",
          "name": "",
          "type": "uint256"
        },
        {
          "internalType": "uint256",
          "name": "",
          "type": "uint256"
        }
      ],
      "name": "creatorElections",
      "outputs": [
        {
          "internalType": "uint256",
          "name": "",
          "type": "uint256"
        }
      ],
      "stateMutability": "view",
      "type": "function"
    },
    {
      "inputs": [],
      "name": "currentChainId",
      "outputs": [
        {
          "internalType": "uint256",
          "name": "",
          "type": "uint256"
        }
      ],
      "stateMutability": "view",
      "type": "function"
    },
    {
      "inputs": [
        {
          "internalType": "uint256",
          "name": "",
          "type": "uint256"
        },
        {
          "internalType": "address",
          "name": "",
          "type": "address"
        }
      ],
      "name": "delegations",
      "outputs": [
        {
          "internalType": "address",
          "name": "",
          "type": "address"
        }
      ],
      "stateMutability": "view",
      "type": "function"
    },
    {
      "inputs": [
        {
          "internalType": "uint256",
          "name": "electionId",
          "type": "uint256"
        }
      ],
      "name": "deleteElection",
      "outputs": [],
      "stateMutability": "nonpayable",
      "type": "function"
    },
    {
      "inputs": [
        {
          "internalType": "uint256",
          "name": "",
          "type": "uint256"
        },
        {
          "internalType": "uint256",
          "name": "",
          "type": "uint256"
        },
        {
          "internalType": "uint256",
          "name": "",
          "type": "uint256"
        }
      ],
      "name": "electionVotes",
      "outputs": [
        {
          "internalType": "uint256",
          "name": "",
          "type": "uint256"
        }
      ],
      "stateMutability": "view",
      "type": "function"
    },
    {
      "inputs": [
        {
          "internalType": "string",
          "name": "",
          "type": "string"
        }
      ],
      "name": "ensToOrgId",
      "outputs": [
        {
          "internalType": "uint256",
          "name": "",
          "type": "uint256"
        }
      ],
      "stateMutability": "view",
      "type": "function"
    },
    {
      "inputs": [
        {
          "internalType": "uint256",
          "name": "pollId",
          "type": "uint256"
        }
      ],
      "name": "generateVotingKeys",
      "outputs": [
        {
          "internalType": "bytes32[]",
          "name": "",
          "type": "bytes32[]"
        }
      ],
      "stateMutability": "nonpayable",
      "type": "function"
    },
    {
      "inputs": [
        {
          "internalType": "address",
          "name": "creator",
          "type": "address"
        }
      ],
      "name": "getCreatorElections",
      "outputs": [
        {
          "internalType": "uint256[]",
          "name": "",
          "type": "uint256[]"
        }
      ],
      "stateMutability": "view",
      "type": "function"
    },
    {
      "inputs": [
        {
          "internalType": "uint256",
          "name": "electionId",
          "type": "uint256"
        }
      ],
      "name": "getElection",
      "outputs": [
        {
          "internalType": "uint256",
          "name": "electionId_",
          "type": "uint256"
        },
        {
          "internalType": "address",
          "name": "creator",
          "type": "address"
        },
        {
          "internalType": "string",
          "name": "title",
          "type": "string"
        },
        {
          "internalType": "string",
          "name": "description",
          "type": "string"
        },
        {
          "internalType": "string",
          "name": "location",
          "type": "string"
        },
        {
          "internalType": "uint256",
          "name": "createdAt",
          "type": "uint256"
        },
        {
          "internalType": "uint256",
          "name": "startTime",
          "type": "uint256"
        },
        {
          "internalType": "uint256",
          "name": "endTime",
          "type": "uint256"
        },
        {
          "internalType": "uint256",
          "name": "totalRegisteredVoters",
          "type": "uint256"
        },
        {
          "internalType": "uint256",
          "name": "totalVotesCast",
          "type": "uint256"
        },
        {
          "internalType": "bytes32",
          "name": "voterMerkleRoot",
          "type": "bytes32"
        },
        {
          "internalType": "bool",
          "name": "isPublic",
          "type": "bool"
        },
        {
          "internalType": "bool",
          "name": "allowAnonymous",
          "type": "bool"
        },
        {
          "internalType": "bool",
          "name": "allowDelegation",
          "type": "bool"
        },
        {
          "internalType": "enum SafeVoteV2.ElectionStatus",
          "name": "status",
          "type": "uint8"
        },
        {
          "components": [
            {
              "internalType": "string",
              "name": "title",
              "type": "string"
            },
            {
              "internalType": "string[]",
              "name": "candidates",
              "type": "string[]"
            },
            {
              "internalType": "uint256",
              "name": "maxSelections",
              "type": "uint256"
            }
          ],
          "internalType": "struct SafeVoteV2.Position[]",
          "name": "positions",
          "type": "tuple[]"
        }
      ],
      "stateMutability": "view",
      "type": "function"
    },
    {
      "inputs": [
        {
          "internalType": "uint256",
          "name": "electionId",
          "type": "uint256"
        },
        {
          "internalType": "uint256",
          "name": "positionIndex",
          "type": "uint256"
        }
      ],
      "name": "getElectionResults",
      "outputs": [
        {
          "internalType": "string[]",
          "name": "candidates",
          "type": "string[]"
        },
        {
          "internalType": "uint256[]",
          "name": "votesCast",
          "type": "uint256[]"
        }
      ],
      "stateMutability": "view",
      "type": "function"
    },
    {
      "inputs": [
        {
          "internalType": "uint256",
          "name": "orgId",
          "type": "uint256"
        },
        {
          "internalType": "address",
          "name": "member",
          "type": "address"
        }
      ],
      "name": "getMemberInfo",
      "outputs": [
        {
          "internalType": "uint256",
          "name": "joinedAt",
          "type": "uint256"
        },
        {
          "internalType": "bool",
          "name": "isActive",
          "type": "bool"
        },
        {
          "internalType": "uint256",
          "name": "votesParticipated",
          "type": "uint256"
        }
      ],
      "stateMutability": "view",
      "type": "function"
    },
    {
      "inputs": [
        {
          "internalType": "uint256",
          "name": "orgId",
          "type": "uint256"
        }
      ],
      "name": "getOrganization",
      "outputs": [
        {
          "internalType": "string",
          "name": "name",
          "type": "string"
        },
        {
          "internalType": "string",
          "name": "ensName",
          "type": "string"
        },
        {
          "internalType": "address",
          "name": "admin",
          "type": "address"
        },
        {
          "internalType": "bool",
          "name": "isPublic",
          "type": "bool"
        },
        {
          "internalType": "uint256",
          "name": "createdAt",
          "type": "uint256"
        },
        {
          "internalType": "uint256",
          "name": "memberCount",
          "type": "uint256"
        }
      ],
      "stateMutability": "view",
      "type": "function"
    },
    {
      "inputs": [
        {
          "internalType": "uint256",
          "name": "orgId",
          "type": "uint256"
        }
      ],
      "name": "getOrganizationMembers",
      "outputs": [
        {
          "internalType": "address[]",
          "name": "",
          "type": "address[]"
        }
      ],
      "stateMutability": "view",
      "type": "function"
    },
    {
      "inputs": [
        {
          "internalType": "uint256",
          "name": "orgId",
          "type": "uint256"
        }
      ],
      "name": "getOrganizationPolls",
      "outputs": [
        {
          "internalType": "uint256[]",
          "name": "",
          "type": "uint256[]"
        }
      ],
      "stateMutability": "view",
      "type": "function"
    },
    {
      "inputs": [
        {
          "internalType": "uint256",
          "name": "orgId",
          "type": "uint256"
        }
      ],
      "name": "getOrganizationSecretKey",
      "outputs": [
        {
          "internalType": "bytes32",
          "name": "",
          "type": "bytes32"
        }
      ],
      "stateMutability": "view",
      "type": "function"
    },
    {
      "inputs": [
        {
          "internalType": "uint256",
          "name": "pollId",
          "type": "uint256"
        }
      ],
      "name": "getPoll",
      "outputs": [
        {
          "components": [
            {
              "internalType": "uint256",
              "name": "pollId",
              "type": "uint256"
            },
            {
              "internalType": "uint256",
              "name": "orgId",
              "type": "uint256"
            },
            {
              "internalType": "address",
              "name": "creator",
              "type": "address"
            },
            {
              "internalType": "string",
              "name": "question",
              "type": "string"
            },
            {
              "internalType": "enum SafeVoteV2.PollType",
              "name": "pollType",
              "type": "uint8"
            },
            {
              "internalType": "string[]",
              "name": "options",
              "type": "string[]"
            },
            {
              "internalType": "uint256",
              "name": "startTime",
              "type": "uint256"
            },
            {
              "internalType": "uint256",
              "name": "endTime",
              "type": "uint256"
            },
            {
              "internalType": "uint256",
              "name": "totalVotes",
              "type": "uint256"
            },
            {
              "internalType": "uint256",
              "name": "requiredQuorum",
              "type": "uint256"
            },
            {
              "internalType": "uint256",
              "name": "totalVotingKeys",
              "type": "uint256"
            },
            {
              "internalType": "bool",
              "name": "isAnonymous",
              "type": "bool"
            },
            {
              "internalType": "enum SafeVoteV2.PollStatus",
              "name": "status",
              "type": "uint8"
            }
          ],
          "internalType": "struct SafeVoteV2.PollInfo",
          "name": "",
          "type": "tuple"
        }
      ],
      "stateMutability": "view",
      "type": "function"
    },
    {
      "inputs": [
        {
          "internalType": "uint256",
          "name": "pollId",
          "type": "uint256"
        }
      ],
      "name": "getPollResults",
      "outputs": [
        {
          "internalType": "string[]",
          "name": "options",
          "type": "string[]"
        },
        {
          "internalType": "uint256[]",
          "name": "votes",
          "type": "uint256[]"
        },
        {
          "internalType": "uint256",
          "name": "totalVotes",
          "type": "uint256"
        },
        {
          "internalType": "enum SafeVoteV2.PollStatus",
          "name": "status",
          "type": "uint8"
        },
        {
          "internalType": "bool",
          "name": "quorumMet",
          "type": "bool"
        }
      ],
      "stateMutability": "view",
      "type": "function"
    },
    {
      "inputs": [
        {
          "internalType": "uint256",
          "name": "pollId",
          "type": "uint256"
        }
      ],
      "name": "getPollVoters",
      "outputs": [
        {
          "internalType": "address[]",
          "name": "",
          "type": "address[]"
        }
      ],
      "stateMutability": "view",
      "type": "function"
    },
    {
      "inputs": [],
      "name": "getPublicOrganizations",
      "outputs": [
        {
          "internalType": "uint256[]",
          "name": "",
          "type": "uint256[]"
        }
      ],
      "stateMutability": "view",
      "type": "function"
    },
    {
      "inputs": [],
      "name": "getTotalElections",
      "outputs": [
        {
          "internalType": "uint256",
          "name": "",
          "type": "uint256"
        }
      ],
      "stateMutability": "view",
      "type": "function"
    },
    {
      "inputs": [],
      "name": "getTotalOrganizations",
      "outputs": [
        {
          "internalType": "uint256",
          "name": "",
          "type": "uint256"
        }
      ],
      "stateMutability": "view",
      "type": "function"
    },
    {
      "inputs": [],
      "name": "getTotalPolls",
      "outputs": [
        {
          "internalType": "uint256",
          "name": "",
          "type": "uint256"
        }
      ],
      "stateMutability": "view",
      "type": "function"
    },
    {
      "inputs": [
        {
          "internalType": "address",
          "name": "user",
          "type": "address"
        }
      ],
      "name": "getUserOrganizations",
      "outputs": [
        {
          "internalType": "uint256[]",
          "name": "",
          "type": "uint256[]"
        }
      ],
      "stateMutability": "view",
      "type": "function"
    },
    {
      "inputs": [
        {
          "internalType": "uint256",
          "name": "pollId",
          "type": "uint256"
        },
        {
          "internalType": "address",
          "name": "voter",
          "type": "address"
        }
      ],
      "name": "hasVoted",
      "outputs": [
        {
          "internalType": "bool",
          "name": "",
          "type": "bool"
        }
      ],
      "stateMutability": "view",
      "type": "function"
    },
    {
      "inputs": [],
      "name": "initialize",
      "outputs": [],
      "stateMutability": "nonpayable",
      "type": "function"
    },
    {
      "inputs": [
        {
          "internalType": "uint256",
          "name": "pollId",
          "type": "uint256"
        },
        {
          "internalType": "address",
          "name": "voter",
          "type": "address"
        }
      ],
      "name": "isAuthorizedVoter",
      "outputs": [
        {
          "internalType": "bool",
          "name": "",
          "type": "bool"
        }
      ],
      "stateMutability": "view",
      "type": "function"
    },
    {
      "inputs": [
        {
          "internalType": "uint256",
          "name": "orgId",
          "type": "uint256"
        }
      ],
      "name": "leaveOrganization",
      "outputs": [],
      "stateMutability": "nonpayable",
      "type": "function"
    },
    {
      "inputs": [
        {
          "internalType": "uint256",
          "name": "",
          "type": "uint256"
        },
        {
          "internalType": "address",
          "name": "",
          "type": "address"
        }
      ],
      "name": "orgMembers",
      "outputs": [
        {
          "internalType": "address",
          "name": "memberAddress",
          "type": "address"
        },
        {
          "internalType": "uint256",
          "name": "joinedAt",
          "type": "uint256"
        },
        {
          "internalType": "bool",
          "name": "isActive",
          "type": "bool"
        },
        {
          "internalType": "uint256",
          "name": "votesParticipated",
          "type": "uint256"
        }
      ],
      "stateMutability": "view",
      "type": "function"
    },
    {
      "inputs": [
        {
          "internalType": "uint256",
          "name": "",
          "type": "uint256"
        },
        {
          "internalType": "uint256",
          "name": "",
          "type": "uint256"
        }
      ],
      "name": "orgMembersList",
      "outputs": [
        {
          "internalType": "address",
          "name": "",
          "type": "address"
        }
      ],
      "stateMutability": "view",
      "type": "function"
    },
    {
      "inputs": [
        {
          "internalType": "uint256",
          "name": "",
          "type": "uint256"
        },
        {
          "internalType": "uint256",
          "name": "",
          "type": "uint256"
        }
      ],
      "name": "orgPolls",
      "outputs": [
        {
          "internalType": "uint256",
          "name": "",
          "type": "uint256"
        }
      ],
      "stateMutability": "view",
      "type": "function"
    },
    {
      "inputs": [
        {
          "internalType": "uint256",
          "name": "",
          "type": "uint256"
        }
      ],
      "name": "organizations",
      "outputs": [
        {
          "internalType": "string",
          "name": "name",
          "type": "string"
        },
        {
          "internalType": "string",
          "name": "ensName",
          "type": "string"
        },
        {
          "internalType": "address",
          "name": "admin",
          "type": "address"
        },
        {
          "internalType": "bool",
          "name": "isPublic",
          "type": "bool"
        },
        {
          "internalType": "bool",
          "name": "exists",
          "type": "bool"
        },
        {
          "internalType": "uint256",
          "name": "createdAt",
          "type": "uint256"
        },
        {
          "internalType": "uint256",
          "name": "memberCount",
          "type": "uint256"
        },
        {
          "internalType": "bytes32",
          "name": "secretKey",
          "type": "bytes32"
        }
      ],
      "stateMutability": "view",
      "type": "function"
    },
    {
      "inputs": [],
      "name": "owner",
      "outputs": [
        {
          "internalType": "address",
          "name": "",
          "type": "address"
        }
      ],
      "stateMutability": "view",
      "type": "function"
    },
    {
      "inputs": [],
      "name": "pause",
      "outputs": [],
      "stateMutability": "nonpayable",
      "type": "function"
    },
    {
      "inputs": [],
      "name": "paused",
      "outputs": [
        {
          "internalType": "bool",
          "name": "",
          "type": "bool"
        }
      ],
      "stateMutability": "view",
      "type": "function"
    },
    {
      "inputs": [],
      "name": "proxiableUUID",
      "outputs": [
        {
          "internalType": "bytes32",
          "name": "",
          "type": "bytes32"
        }
      ],
      "stateMutability": "view",
      "type": "function"
    },
    {
      "inputs": [
        {
          "internalType": "uint256",
          "name": "orgId",
          "type": "uint256"
        },
        {
          "internalType": "address",
          "name": "member",
          "type": "address"
        }
      ],
      "name": "removeMember",
      "outputs": [],
      "stateMutability": "nonpayable",
      "type": "function"
    },
    {
      "inputs": [],
      "name": "renounceOwnership",
      "outputs": [],
      "stateMutability": "nonpayable",
      "type": "function"
    },
    {
      "inputs": [
        {
          "internalType": "uint256",
          "name": "orgId",
          "type": "uint256"
        },
        {
          "internalType": "bool",
          "name": "isPublic",
          "type": "bool"
        }
      ],
      "name": "setOrganizationVisibility",
      "outputs": [],
      "stateMutability": "nonpayable",
      "type": "function"
    },
    {
      "inputs": [
        {
          "internalType": "address",
          "name": "newOwner",
          "type": "address"
        }
      ],
      "name": "transferOwnership",
      "outputs": [],
      "stateMutability": "nonpayable",
      "type": "function"
    },
    {
      "inputs": [],
      "name": "unpause",
      "outputs": [],
      "stateMutability": "nonpayable",
      "type": "function"
    },
    {
      "inputs": [
        {
          "internalType": "address",
          "name": "newImplementation",
          "type": "address"
        },
        {
          "internalType": "bytes",
          "name": "data",
          "type": "bytes"
        }
      ],
      "name": "upgradeToAndCall",
      "outputs": [],
      "stateMutability": "payable",
      "type": "function"
    },
    {
      "inputs": [
        {
          "internalType": "uint256",
          "name": "",
          "type": "uint256"
        },
        {
          "internalType": "bytes32",
          "name": "",
          "type": "bytes32"
        }
      ],
      "name": "usedVoterKeys",
      "outputs": [
        {
          "internalType": "bool",
          "name": "",
          "type": "bool"
        }
      ],
      "stateMutability": "view",
      "type": "function"
    },
    {
      "inputs": [
        {
          "internalType": "address",
          "name": "",
          "type": "address"
        },
        {
          "internalType": "uint256",
          "name": "",
          "type": "uint256"
        }
      ],
      "name": "userOrganizations",
      "outputs": [
        {
          "internalType": "uint256",
          "name": "",
          "type": "uint256"
        }
      ],
      "stateMutability": "view",
      "type": "function"
    },
    {
      "inputs": [
        {
          "internalType": "uint256",
          "name": "orgId",
          "type": "uint256"
        },
        {
          "internalType": "bytes32",
          "name": "secretKey",
          "type": "bytes32"
        }
      ],
      "name": "verifyPrivateOrgAccess",
      "outputs": [
        {
          "internalType": "bool",
          "name": "",
          "type": "bool"
        }
      ],
      "stateMutability": "view",
      "type": "function"
    },
    {
      "inputs": [],
      "name": "version",
      "outputs": [
        {
          "internalType": "string",
          "name": "",
          "type": "string"
        }
      ],
      "stateMutability": "pure",
      "type": "function"
    },
    {
      "inputs": [
        {
          "internalType": "uint256",
          "name": "electionId",
          "type": "uint256"
        },
        {
          "internalType": "bytes32",
          "name": "voterKey",
          "type": "bytes32"
        },
        {
          "internalType": "bytes32[]",
          "name": "merkleProof",
          "type": "bytes32[]"
        },
        {
          "internalType": "uint256[][]",
          "name": "votes",
          "type": "uint256[][]"
        },
        {
          "internalType": "address",
          "name": "delegateTo",
          "type": "address"
        }
      ],
      "name": "vote",
      "outputs": [],
      "stateMutability": "nonpayable",
      "type": "function"
    },
    {
      "inputs": [
        {
          "internalType": "uint256",
          "name": "pollId",
          "type": "uint256"
        },
        {
          "internalType": "uint256",
          "name": "optionIndex",
          "type": "uint256"
        },
        {
          "internalType": "bytes32",
          "name": "votingKey",
          "type": "bytes32"
        }
      ],
      "name": "vote",
      "outputs": [],
      "stateMutability": "nonpayable",
      "type": "function"
    }
  ],
  "bytecode": "0x60a08060405234620000d157306080527ff0c57e16840df040f15088dc2f81fe391c3923bec73e23a9662efc9c229c6a009081549060ff8260401c16620000c257506001600160401b036002600160401b0319828216016200007c575b6040516151d49081620000d7823960805181818161314301526131fc0152f35b6001600160401b031990911681179091556040519081527fc7f505b2f371ae2175ee4913f4499e1f2633a7b5936321eed1cdaeb6115181d290602090a13880806200005c565b63f92ee8a960e01b8152600490fd5b600080fdfe60a0604052600436101561001257600080fd5b60003560e01c806306c6f95b14614122578063099f50a0146140f157806310fb5cf5146140885780631115f29d1461402c5780631a8cbcaa14613df35780631b865a8414613dc95780631e67939e14613d62578063250f3e1e14613d2a5780632db2c70b14613ce257806333b4097b14613bca5780633444368c14613b495780633ef87d5414613b2b5780633f4ba83a14613ab45780634214c42f1461364057806343859632146135d15780634388ac9b146135875780634526f690146134e05780634840042c1461342357806349565f4c146133db5780634f1ef286146131ad57806352d1902d1461313057806354fd4d50146130e55780635a60ba1f146130735780635c975abb146130435780635ce8b0c414612fb05780635edaa87814612ec85780636a39962514612dbf5780636be7658b14612c725780636cbadbfa14612c545780636d1298b014612be1578063715018a614612b7757806373e3f52414612934578063740c47d4146127ae57806374d0a676146125b057806378b44f961461245d5780638129fc1c146122ee5780638456cb5914612287578063874a72c1146121995780638c881eeb14611e1d5780638da5cb5b14611de75780639b45759c14611d0c5780639d71077714611a94578063a0e0007c146114b0578063a1fa6f5214611492578063a65806061461139d578063a9392e0c1461137f578063aa097ef014611308578063ad3cb1cc146112c2578063b1b2409c14611253578063bd06da54146111aa578063cc0756ab14610ff9578063d4b5bf5614610fa1578063d8fe0c2a14610f0c578063e792dd8a14610e5b578063f2fde38b14610e30578063fa61254a14610dd4578063fb009af114610d115763fc15ae9e1461029a57600080fd5b34610d0c57610160366003190112610d0c576004356001600160401b038111610d0c576102cb9036906004016142ab565b6024356001600160401b038111610d0c576102ea9036906004016142ab565b6044356001600160401b038111610d0c576103099036906004016142ab565b6103116143ea565b9061010435918215158303610d0c57610124358015158103610d0c576001600160401b036101443511610d0c5736602361014435011215610d0c5761035c6101443560040135614471565b9361036a6040519586614238565b6101443560040135855260208501366024610144356004013560051b61014435010111610d0c5760246101443501905b6024610144356004013560051b6101443501018210610c5a5750506103bd614fae565b865115610c2457426064351115610bdf576064356084351115610bac5760a43515610b745760c43515610b4057845115610b0a576103fc60095461476c565b938460095584600052600a60205260406000209685885560018801336001600160601b0360a01b82541617905588516001600160401b0381116107b15761044660028a0154614507565b601f8111610ad5575b506020601f8211600114610a6857908061047f92600091610a5d575b508160011b916000199060031b1c19161790565b60028901555b8051906001600160401b0382116107b1576104a360038a0154614507565b601f8111610a28575b50602090601f83116001146109b6576104de9291600091836106f9575b50508160011b916000199060031b1c19161790565b60038801555b8051906001600160401b0382116107b1576105026004890154614507565b601f8111610981575b50602090601f831160011461090c5791806105429262ff000095946000926106f95750508160011b916000199060031b1c19161790565b60048801555b4260058801556064356006880155608435600788015560a435600888015560c435600a880155610588600b880194859060ff801983541691151516179055565b61ff00845491151560081b169063ffffff0019161791151560101b1617905560005b825181101561087b576105bd81846146af565b51600c850154600160401b8110156107b1578060016105e59201600c880155600c8701614750565b9190916108655780518051906001600160401b0382116107b1576106098454614507565b601f8111610833575b50602090601f83116001146107c7576106439291600091836106f95750508160011b916000199060031b1c19161790565b82555b600182016020820151602081519161065e8385614e54565b019160005260206000206000925b82841061068b57505050509060026040600194930151910155016105aa565b80518051906001600160401b0382116107b1576106a88454614507565b601f8111610774575b50602090601f831160011461070457926106ea836001959460209487966000926106f95750508160011b916000199060031b1c19161790565b85555b0192019301929061066c565b0151905038806104c9565b908460005260206000209160005b601f198516811061075c575083602093600196938796938794601f19811610610743575b505050811b0185556106ed565b015160001960f88460031b161c19169055388080610736565b91926020600181928685015181550194019201610712565b6107a190856000526020600020601f850160051c810191602086106107a7575b601f0160051c0190614be9565b386106b1565b9091508190610794565b634e487b7160e01b600052604160045260246000fd5b9190846000526020600020906000935b601f1984168510610818576001945083601f198116106107ff575b505050811b018255610646565b015160001960f88460031b161c191690553880806107f2565b818101518355602094850194600190930192909101906107d7565b61085f90856000526020600020601f850160051c810191602086106107a757601f0160051c0190614be9565b38610612565b634e487b7160e01b600052600060045260246000fd5b60208286604051838101903360601b8252601481526108998161421d565b519020600052600b83526108b1826040600020614c3b565b817f99846d9f6d46b44ced88f8d3102ac3e1d14e871e0147e1f4f2c784a28cc923a76108e8604051936080855260808501906142ec565b926064358682015260843560408201524260608201528033940390a3604051908152f35b906004890160005260206000209160005b601f1985168110610969575091839160019362ff00009695601f19811610610950575b505050811b016004880155610548565b015160001960f88460031b161c19169055388080610940565b9192602060018192868501518155019401920161091d565b6109b09060048a016000526020600020601f850160051c810191602086106107a757601f0160051c0190614be9565b3861050b565b919060038a016000526020600020906000935b601f1984168510610a0d576001945083601f198116106109f4575b505050811b0160038801556104e4565b015160001960f88460031b161c191690553880806109e4565b818101518355602094850194600190930192909101906109c9565b610a579060038b016000526020600020601f850160051c810191602086106107a757601f0160051c0190614be9565b386104ac565b90508b01513861046b565b9060028a0160005260206000206000925b8c601f1984168510610abe57506001935082601f19811610610aa5575b5050811b016002890155610485565b8c015160001960f88460031b161c191690553880610a96565b810151825560209384019360019092019101610a79565b610b049060028b016000526020600020601f840160051c810191602085106107a757601f0160051c0190614be9565b3861044f565b60405162461bcd60e51b815260206004820152600e60248201526d4e65656420706f736974696f6e7360901b6044820152606490fd5b60405162461bcd60e51b815260206004820152600c60248201526b125b9d985b1a59081c9bdbdd60a21b6044820152606490fd5b60405162461bcd60e51b815260206004820152601060248201526f4d757374206861766520766f7465727360801b6044820152606490fd5b60405162461bcd60e51b815260206004820152600b60248201526a115b99080f881cdd185c9d60aa1b6044820152606490fd5b60405162461bcd60e51b815260206004820152601960248201527f53746172742074696d65206d75737420626520667574757265000000000000006044820152606490fd5b60405162461bcd60e51b815260206004820152600e60248201526d151a5d1b19481c995c5d5a5c995960921b6044820152606490fd5b81356001600160401b038111610d0c57606061014435820136036023190112610d0c5760405191610c8a83614202565b6001600160401b036024836101443501013511610d0c57610cb83660246101443585018181013501016142ab565b83526001600160401b036044836101443501013511610d0c576020928392606490610cf136610144358301604481013501602401614488565b8584015261014435010135604082015281520191019061039a565b600080fd5b34610d0c576040366003190112610d0c5760043560243580151590818103610d0c577f5e8669c0a3e7660bd02ba16c580bc8adacd4b974efa0e8dfeb67ac859f7ed5f291610dc660409285600052600280602052610d7a60ff8287600020015460a81c16614c70565b8660005280602052610d9b60018060a01b0382876000200154163314614d16565b6000878152602082905285902001805460ff60a01b191691151560a01b60ff60a01b16919091179055565b8151908152426020820152a2005b34610d0c576020366003190112610d0c57600435806000526002602052610e0860ff60026040600020015460a81c16614c70565b6000526004602052610e2c610e206040600020614cbc565b604051918291826143f9565b0390f35b34610d0c576020366003190112610d0c57610e59610e4c6143a4565b610e54614fd9565b614ef8565b005b34610d0c576020366003190112610d0c576004356000526002602052610ec46040600020610e8881614541565b90610e9560018201614541565b600282015491600381015460ff610ed26005600485015494015494604051988998610100808b528a01906142ec565b9088820360208a01526142ec565b9460018060a01b0381166040880152818160a01c161515606088015260a81c161515608086015260a085015260c084015260e08301520390f35b34610d0c576020366003190112610d0c5760043580600052600a602052600b6040600020610f4760018060a01b036001830154163314614dd1565b0163020000008154610f6860ff8260181c16610f6281614311565b156146c3565b63ff0000001916179055604051904282527f08e7d8d112b48cf67fb13b64e8c03b505d22bcc1c0f034fa73f44b8f19b391bc60203393a3005b34610d0c576040366003190112610d0c57610fba6143a4565b6001600160a01b0316600090815260056020526040902080546024359190821015610d0c57602091610feb91614169565b90546040519160031b1c8152f35b34610d0c57602080600319360112610d0c576004358015158061119e575b611020906145e6565b6000818152600683526040902060028101546001600160a01b0316330361114d57600a015461104e81614471565b9061105c6040519283614238565b80825261106881614471565b8285019390601f1901368537606033811b60005b8481106110c657878688604051928392818401908285525180915260408401929160005b8281106110af57505050500390f35b8351855286955093810193928101926001016110a0565b6040519088820185815281604084015242858401524460808401528360a08401526094835260c08301928084106001600160401b038511176107b157604087927f91f3e3438d42d40ec8d759e956db6ff93abf8ffedcef79dec1a6ddddfb7527549260019683525190208061113b868d6146af565b528151908152428d820152a20161107c565b60405162461bcd60e51b815260048101849052602360248201527f4f6e6c7920706f6c6c2063726561746f722063616e2067656e6572617465206b60448201526265797360e81b6064820152608490fd5b50600154811115611017565b34610d0c57602080600319360112610d0c576111c46143a4565b604051828101916001600160601b03199060601b168252601481526111e88161421d565b519020600052600b8152604060002090604051808383829554938481520190600052836000209260005b8582821061123d5750505061122992500383614238565b610e2c604051928284938452830190614197565b8554845260019586019588955093019201611212565b34610d0c576040366003190112610d0c5760043561126f61438e565b90801515806112b6575b611282906145e6565b6000526006602052600f6040600020019060018060a01b0316600052602052602060ff604060002054166040519015158152f35b50600154811115611279565b34610d0c576000366003190112610d0c57610e2c6040516112e28161421d565b60058152640352e302e360dc1b60208201526040519182916020835260208301906142ec565b34610d0c57602080600319360112610d0c576001600160a01b0361132a6143a4565b1660005260058152604060002090604051808383829554938481520190600052836000209260005b858282106113695750505061122992500383614238565b8554845260019586019588955093019201611352565b34610d0c576000366003190112610d0c576020600954604051908152f35b34610d0c576113ab36614153565b90806000526020600a8152600c80604060002001805485101561145a57846113d291614750565b50906001809201948554916113e68361467d565b9560005b8481106114245761141788610e2c896114028d614628565b92604051948594604086526040860190614331565b9184830390850152614197565b85908260005283885260406000208560005288526040600020816000528852604060002054611453828b6146af565b52016113ea565b60405162461bcd60e51b815260048101849052601060248201526f24b73b30b634b2103837b9b4ba34b7b760811b6044820152606490fd5b34610d0c576000366003190112610d0c576020600054604051908152f35b34610d0c57610100366003190112610d0c576024356001600160401b038111610d0c576114e19036906004016142ab565b60036044351015610d0c576064356001600160401b038111610d0c5761150b903690600401614488565b906115146143ea565b90600435600052600260205261153760ff60026040600020015460a81c16614c70565b600435600052600360205260406000203360005260205261156260ff60026040600020015416614d6d565b61156a614fae565b805115611a4f576002835110611a0a57603c608435106119ba57606460a435116119755760c43515611930576115a160015461476c565b9182600155826000526006602052604060002093838555600435600186015560028501336001600160601b0360a01b82541617905582516001600160401b0381116107b1576115f36003870154614507565b601f81116118fb575b506020601f821160011461188f57908061162b9260009161188457508160011b916000199060031b1c19161790565b60038601555b60048501611640604435614311565b60ff1981541660ff60443516179055600585019060208151916116638385614e54565b01916000526020600020916000905b8282106117695750505050426006850155608435420190814211611753576116ca600b866007602098019485556000600882015560a435600982015560c435600a8201550191829060ff801983541691151516179055565b61ff00198154169055600435600052600784526116eb836040600020614c3b565b54611701604051926080845260808401906142ec565b9061170d604435614311565b604435858401526040830152426060830152827fe0c87f3b69aa25adb8ea201d64c8819ca9654002ae4193cb8a50cbfddc14693d339380600435940390a4604051908152f35b634e487b7160e01b600052601160045260246000fd5b80518051906001600160401b0382116107b1576117868654614507565b601f8111611852575b50602090601f83116001146117e257926117c8836001959460209487966000926117d75750508160011b916000199060031b1c19161790565b87555b01940191019092611672565b015190508e806104c9565b908660005260206000209160005b601f198516811061183a575083602093600196938796938794601f19811610611821575b505050811b0187556117cb565b015160001960f88460031b161c191690558d8080611814565b919260206001819286850151815501940192016117f0565b61187e90876000526020600020601f850160051c810191602086106107a757601f0160051c0190614be9565b8a61178f565b90508501518861046b565b906003870160005260206000206000925b601f19831684106118e3576001935082601f198116106118ca575b5050811b016003860155611631565b86015160001960f88460031b161c1916905587806118bb565b868101518255602093840193600190920191016118a0565b61192a90600388016000526020600020601f840160051c810191602085106107a757601f0160051c0190614be9565b866115fc565b60405162461bcd60e51b815260206004820152601c60248201527f4d7573742067656e6572617465206174206c656173742031206b6579000000006044820152606490fd5b60405162461bcd60e51b815260206004820152601960248201527f51756f72756d2063616e6e6f74206578636565642031303025000000000000006044820152606490fd5b60405162461bcd60e51b815260206004820152602260248201527f4475726174696f6e206d757374206265206174206c656173742031206d696e75604482015261746560f01b6064820152608490fd5b60405162461bcd60e51b815260206004820152601b60248201527f4174206c656173742032206f7074696f6e7320726571756972656400000000006044820152606490fd5b60405162461bcd60e51b815260206004820152601860248201527f5175657374696f6e2063616e6e6f7420626520656d70747900000000000000006044820152606490fd5b34610d0c576020366003190112610d0c576004356000908152600a6020526040902060018101546001600160a01b0316908115611cd257805490600581015492600682015490600783015460088401546009850154600a86015491600b87015493611b0160028901614541565b96611b0e60038a01614541565b97611b1b60048b01614541565b90600c8b015498611b2b8a614471565b99611b396040519b8c614238565b808b5260208b01600c819e0160005260206000206000915b838310611c8d57505050506040519c8d61020092839282526020820152604001528c01611b7d916142ec565b986060998c8082039060600152611b93916142ec565b8b810360808d0152611ba4916142ec565b9a60a08b015260c08a015260e089015261010088015261012087015261014086015260ff811615156101608601528060081c60ff1615156101808601528060101c60ff1615156101a08601528060181c60ff16611c0090614311565b60181c60ff166101c08501528385036101e08501525180855260208501918160051b860160200193926000915b838310611c3a5786860387f35b9091929394602080600192601f198b8203018652885190604080611c78611c6885518a86528a8601906142ec565b8686015185820388870152614331565b93015191015297019301930191939290611c2d565b60036020600192604051611ca081614202565b611ca986614541565b8152611cb6858701614628565b8382015260028601546040820152815201920192019190611b51565b60405162461bcd60e51b8152602060048201526012602482015271115b1958dd1a5bdb881b9bdd08199bdd5b9960721b6044820152606490fd5b34610d0c57611d1a3661443e565b909180151580611ddb575b611d2e906145e6565b60005260206006602052604060002060018060a01b0390600291611d59816002840154163314614e9d565b60009460019660018401965b828110611d6e57005b8890885460005260038852604060002085611d92611d8d848888614740565b614dbd565b16600052885260ff876040600020015416611dae575b01611d65565b84611dbd611d8d838787614740565b16600052600f8601885260406000208260ff19825416179055611da8565b50600154811115611d25565b34610d0c576000366003190112610d0c5760008051602061515f833981519152546040516001600160a01b039091168152602090f35b34610d0c576060366003190112610d0c5760246004356044823581358315158061218d575b611e4b906145e6565b8360005260209060068252604060002060ff600b82015460081c16611e6f81614311565b612155576006810154421061211b576007015442116120e757611e90614f6c565b611e98614fae565b846000526006825260406000209333600052600f8501835260ff60406000205416156120ac57600e8501913360005282845260ff6040600020541661207957600c8601918160005282855260ff6040600020541661203757600587015486101561200457506007969750600052825260406000209060ff1991600183825416179055336000528252600160406000209182541617905581600052600d830181526040600020611f47815461476c565b905560088301611f57815461476c565b9055611f663360108501614c00565b6001830180546000526003825260406000203360005282526003604060002001611f90815461476c565b905554906040519283524290830152847f58cfe003711e6d7e0f32c93d3eb5617a03925d8863d7bb5dc08466636586602260403394a401544211611ff5575b60017f9b779b17422d0df92223018b32b4d1fa46e071723d6817e2486d003becc55f0055005b611ffe90615012565b80611fcf565b846d24b73b30b634b21037b83a34b7b760911b606492600e8c6040519462461bcd60e51b86526004860152840152820152fd5b847f566f74696e67206b657920616c7265616479207573656400000000000000000060649260178c6040519462461bcd60e51b86526004860152840152820152fd5b60405162461bcd60e51b815260048101859052600d818a01526c105b1c9958591e481d9bdd1959609a1b81840152606490fd5b82754e6f7420617574686f72697a656420746f20766f746560501b60649260168a6040519462461bcd60e51b86526004860152840152820152fd5b60405162461bcd60e51b815260048101839052600e818801526d141bdb1b081a185cc8195b99195960921b81860152606490fd5b60405162461bcd60e51b81526004810184905260148189015273141bdb1b081a185cc81b9bdd081cdd185c9d195960621b81870152606490fd5b60405162461bcd60e51b81526004810184905260128189015271506f6c6c206973206e6f742061637469766560701b81870152606490fd5b50600154841115611e42565b34610d0c576040366003190112610d0c576004356121b561438e565b908015158061227b575b6121c8906145e6565b6000526006602052604060002060018060a01b036121ed816002840154163314614e9d565b6001820154600052600360205260406000209216918260005260205260ff6002604060002001541615612236576000918252600f0160205260409020805460ff19166001179055005b60405162461bcd60e51b815260206004820152601860248201527f566f746572206d757374206265206f7267206d656d62657200000000000000006044820152606490fd5b506001548111156121bf565b34610d0c576000366003190112610d0c576122a0614fd9565b6122a8614fae565b60008051602061517f833981519152600160ff198254161790557f62e78cea01bee320cd4e420270b5ea74000d11b0c9f74754ebdbfc544b05a2586020604051338152a1005b34610d0c576000366003190112610d0c577ff0c57e16840df040f15088dc2f81fe391c3923bec73e23a9662efc9c229c6a00805460ff8160401c1615906001600160401b03811680159081612455575b600114908161244b575b159081612442575b506124305767ffffffffffffffff198116600117835581612411575b506123756150ba565b61237d6150ba565b61238633614ef8565b61238e6150ba565b6123966150ba565b61239e6150ba565b60017f9b779b17422d0df92223018b32b4d1fa46e071723d6817e2486d003becc55f00556123ca6150ba565b46600f556123d457005b68ff00000000000000001981541690557fc7f505b2f371ae2175ee4913f4499e1f2633a7b5936321eed1cdaeb6115181d2602060405160018152a1005b68ffffffffffffffffff1916680100000000000000011782558261236c565b60405163f92ee8a960e01b8152600490fd5b90501584612350565b303b159150612348565b83915061233e565b34610d0c57602080600319360112610d0c5760043561247a614fae565b80600052600280835261249960ff826040600020015460a81c16614c70565b8160005260038352604060002033600052835260ff8160406000200154161561257c578160005280835260018060a01b03816040600020015416331461254257816000526003835260406000203360005283528060406000200160ff19815416905581600052825260046040600020016125138154614db0565b90557fb706b99ca756475e4ee43b2731a9948bd475453f00f8cdabfb2ae3f93670e8b4604051924284523393a3005b60405162461bcd60e51b815260048101849052601260248201527141646d696e2063616e6e6f74206c6561766560701b6044820152606490fd5b60405162461bcd60e51b815260048101849052600c60248201526b2737ba10309036b2b6b132b960a11b6044820152606490fd5b34610d0c576040366003190112610d0c576004356125cc61438e565b816000526002916020928084526125ef60ff826040600020015460a81c16614c70565b8160005260038452604060002033600052845261261560ff826040600020015416614d6d565b61261d614fae565b6001600160a01b0383811693908415612777578360005260038652604060002085600052865260ff83604060002001541661273f57906126e291600360405191612666836141e7565b8783526126cc8984014281526040850190600182526060860193600085528a600052858d5260406000208c6000528d5260406000209651166001600160601b0360a01b8754161786555160018601555115158785019060ff801983541691151516179055565b5191015583600052600486526040600020614c00565b82600052600584526126f8826040600020614c3b565b8160005283526004604060002001612710815461476c565b90557fa2f02c86111ee5ba8f179f5bc5e41de92b1fb933328b17c58760996e9d11210d604051934285523394a4005b60405162461bcd60e51b815260048101879052601060248201526f20b63932b0b23c90309036b2b6b132b960811b6044820152606490fd5b60405162461bcd60e51b815260048101879052600f60248201526e496e76616c6964206164647265737360881b6044820152606490fd5b34610d0c57602080600319360112610d0c576004359081600052600a815260406000209160ff600b6001946127f060018060a01b036001830154163314614dd1565b015460181c166127ff81614311565b1561290057600052600a8152604060002091600083556000600184015560029061282b60028501614e0b565b600c60039461283c60038201614e0b565b61284860048201614e0b565b60006005820155600060068201556000600782015560006008820155600060098201556000600a8201556000600b8201550192835493600081558461288957005b846003029460038604036117535760005280600020938401935b8481106128ac57005b806128b78792614e0b565b83810180549060008155816128d5575b5050600085820155016128a3565b6000528484600020918201915b8281106128ef57506128c7565b6128f881614e0b565b0185906128e2565b60405162461bcd60e51b815260048101839052600c60248201526b5374696c6c2061637469766560a01b6044820152606490fd5b34610d0c576129423661443e565b9180600052600260209181835261296560ff836040600020015460a81c16614c70565b8060005260039160038452604060002033600052845261298e60ff826040600020015416614d6d565b612996614fae565b8515612b3c5760648611612af75760005b8681106129b057005b806129c1611d8d6001938a8a614740565b828060a01b038082169182158015612ad4575b612acc57612a67918888612a51604051936129ee856141e7565b8785528d80860142815260408701928c928385526060890196600088526000528781526040600020908c6000525260406000209751166001600160601b0360a01b88541617875551908601555115158a85019060ff801983541691151516179055565b5191015586600052600489526040600020614c00565b8060005260058752612a7d856040600020614c3b565b846000528387526004604060002001612a96815461476c565b905560405190428252857fa2f02c86111ee5ba8f179f5bc5e41de92b1fb933328b17c58760996e9d11210d893394a45b016129a7565b505050612ac6565b5086600052878952604060002083600052895260ff8660406000200154166129d4565b60405162461bcd60e51b815260048101859052601860248201527f546f6f206d616e79206d656d62657273206174206f6e636500000000000000006044820152606490fd5b60405162461bcd60e51b8152600481018590526013602482015272456d707479206d656d6265727320617272617960681b6044820152606490fd5b34610d0c576000366003190112610d0c57612b90614fd9565b60008051602061515f83398151915280546001600160a01b031981169091556000906001600160a01b03167f8be0079c531659141344cd1fd0a4f28419497f9722a3daafe3b4186f6b6457e08280a3005b34610d0c576020366003190112610d0c57600435806000526002602052612c1560ff60026040600020015460a81c16614c70565b806000526002602052612c3960018060a01b03600260406000200154163314614d16565b60005260026020526020600560406000200154604051908152f35b34610d0c576000366003190112610d0c576020600f54604051908152f35b34610d0c576040366003190112610d0c57600435612c8e61438e565b81600052600291602092808452612cb160ff826040600020015460a81c16614c70565b8160005280845260018060a01b03612cd3818360406000200154163314614d16565b612cdb614fae565b82600052818552808260406000200154169316928314612d845781600052600384526040600020836000528452612d1b60ff826040600020015416614d6d565b816000526003845260406000208360005284528060406000200160ff1981541690558160005283526004604060002001612d558154614db0565b90557fc7afe249e6747ffd83e86b35ca8515c454464531b7667c0fd09c9051ccc3fede604051934285523394a4005b60405162461bcd60e51b815260048101859052601360248201527221b0b73737ba103932b6b7bb329030b236b4b760691b6044820152606490fd5b34610d0c576000366003190112610d0c57600080549060015b82811115612e715750612dea9061467d565b90600060015b82811115612e0e5760405160208082528190610e2c90820187614197565b806000526002806020526040600020015460ff808260a81c169182612e64575b5050612e43575b612e3e9061476c565b612df0565b90612e5c8183612e56612e3e94886146af565b5261476c565b919050612e35565b60a01c1690508580612e2e565b806000526002806020526040600020015460ff808260a81c169182612ebb575b5050612ea6575b612ea19061476c565b612dd8565b90612eb3612ea19161476c565b919050612e98565b60a01c1690508480612e91565b34610d0c576020366003190112610d0c5760043580151580612fa4575b612eee906145e6565b80600052600660205260406000206007810154421115612f6657600b015460081c60ff16612f1b81614311565b612f2857610e5990615012565b60405162461bcd60e51b8152602060048201526016602482015275141bdb1b08185b1c9958591e4818dbdb5c1b195d195960521b6044820152606490fd5b60405162461bcd60e51b8152602060048201526016602482015275141bdb1b081a185cc81b9bdd08195b991959081e595d60521b6044820152606490fd5b50600154811115612ee5565b34610d0c576020366003190112610d0c5760043580151580613037575b612fd6906145e6565b6000526006602052604060002060ff600b82015416612ffe57610e206010610e2c9201614cbc565b60405162461bcd60e51b8152602060048201526011602482015270506f6c6c20697320616e6f6e796d6f757360781b6044820152606490fd5b50600154811115612fcd565b34610d0c576000366003190112610d0c57602060ff60008051602061517f83398151915254166040519015158152f35b34610d0c576040366003190112610d0c57608061308e61438e565b6004356000526003602052604060002060018060a01b0380921660005260205260406000209081541690600181015490600360ff600283015416910154916040519384526020840152151560408301526060820152f35b34610d0c576000366003190112610d0c57610e2c6040516131058161421d565b600a8152690c8b8c0b8c0b599d5b1b60b21b60208201526040519182916020835260208301906142ec565b34610d0c576000366003190112610d0c577f00000000000000000000000000000000000000000000000000000000000000006001600160a01b0316300361319b5760206040517f360894a13ba1a3210667c828492db98dca3e2076cc3735a920a3ca505d382bbc8152f35b60405163703e46dd60e11b8152600490fd5b6040366003190112610d0c576131c16143a4565b6024356001600160401b038111610d0c5736602382011215610d0c576131f1903690602481600401359101614274565b906001600160a01b037f000000000000000000000000000000000000000000000000000000000000000081163081149081156133ad575b5061319b57613235614fd9565b6040516352d1902d60e01b8152908216916020918281600481875afa6000918161337e575b5061327857604051634c9c8ce360e01b815260048101859052602490fd5b9284937f360894a13ba1a3210667c828492db98dca3e2076cc3735a920a3ca505d382bbc908181036133665750823b1561334d5780546001600160a01b03191682179055604051907fbc7cd75a20ee27fd9adebab32041f755214dbc6bffa90cc0225b39da2e5c2d3b600080a283511561333357506000808484610e5996519101845af4903d1561332a573d61330d81614259565b9061331b6040519283614238565b8152600081943d92013e6150fb565b606092506150fb565b925050503461333e57005b63b398979f60e01b8152600490fd5b604051634c9c8ce360e01b815260048101839052602490fd5b60249060405190632a87526960e21b82526004820152fd5b9091508381813d83116133a6575b6133968183614238565b81010312610d0c5751908661325a565b503d61338c565b9050817f360894a13ba1a3210667c828492db98dca3e2076cc3735a920a3ca505d382bbc5416141584613228565b34610d0c576060366003190112610d0c57600435600052600c602052604060002060243560005260205260406000206044356000526020526020604060002054604051908152f35b34610d0c576020366003190112610d0c5760043580600052600a6020526040600020600b8101805461345e60ff8260181c16610f6281614311565b60078301544211156134af5763ff0000001916630100000017905560090154604080519182524260208301527fbe36c07b738ad196c3368561f94a350aad86e338c028c04a7caa7599824a6e7a91a2005b60405162461bcd60e51b8152602060048201526009602482015268139bdd08195b99195960ba1b6044820152606490fd5b34610d0c576020366003190112610d0c5760043560005260026020526135516040600020600281015461351860ff8260a81c16614c70565b600382015460048301549060ff61355f61353d600161353688614541565b9701614541565b60405197889760c0895260c08901906142ec565b9087820360208901526142ec565b9360018060a01b038116604087015260a01c1615156060850152608084015260a08301520390f35b34610d0c5761359536614153565b90600052600460205260406000208054821015610d0c576020916135b891614169565b905460405160039290921b1c6001600160a01b03168152f35b34610d0c576040366003190112610d0c576004356135ed61438e565b9080151580613634575b613600906145e6565b6000526006602052600e6040600020019060018060a01b0316600052602052602060ff604060002054166040519015158152f35b506001548111156135f7565b34610d0c576060366003190112610d0c576001600160401b03600435818111610d0c576136719036906004016142ab565b90602435818111610d0c5761368a9036906004016142ab565b91604435151560443503610d0c576136a0614fae565b805115613a78576136b260005461476c565b908160005560405160208101908382523360601b60408201524260548201524460748201526074815260a08101818110868211176107b1576040525190209382600052600260205260406000208251958587116107b1576137138254614507565b96601f97888111613a48575b5060208882116001146139e357908061374d926000916139d857508160011b916000199060031b1c19161790565b82555b82519586116107b1576020966137696001840154614507565b81811161399d575b508790871160011461392e578686976137a29260009897989161392357508160011b916000199060031b1c19161790565b60018301555b60028201805461ffff60a01b1933166001600160b01b03199091161760ff60a01b604435151560a01b1617600160a81b1790554260038084019190915560016004840155600590920155604051906001600160a01b0319613808836141e7565b33835261386d88840142815260408501906001825260608601936000855288600052858c526040600020336000528c5260406000209660018060a01b0390511690875416178655516001860155511515600285019060ff801983541691151516179055565b519101558160005260048552613887336040600020614c00565b336000526005855261389d826040600020614c3b565b8051806138fb575b50507f17ca217badf67fd736a803fed5267c913ce7c54826780d24067c69808dcd79276138dd604051936060855260608501906142ec565b926044351515868201524260408201528033940390a3604051908152f35b859181613910849360405180968195016142c9565b81016008815203019020558184806138a5565b90508501518a61046b565b60018301600052876000209060005b601f1989168110613986575096600191879882601f9998991981161061396d575b5050811b0160018301556137a8565b86015160001960f88460031b161c19169055898061395e565b90918960018192858901518155019301910161393d565b6139c990600185016000528960002083808b0160051c8201928c8c106139cf575b0160051c0190614be9565b88613771565b925081926139be565b90508601518a61046b565b601f198216908460005260206000209160005b818110613a3057509083600194939210613a17575b5050811b018255613750565b87015160001960f88460031b161c191690558980613a0b565b9192602060018192868c0151815501940192016139f6565b613a72908460005260206000208a80850160051c820192602086106139cf570160051c0190614be9565b8861371f565b60405162461bcd60e51b81526020600482015260146024820152734e616d652063616e6e6f7420626520656d70747960601b6044820152606490fd5b34610d0c576000366003190112610d0c57613acd614fd9565b60008051602061517f833981519152805460ff811615613b195760ff191690557f5db9ee0a495bf2e6ff9c91a7834c1ba4fdd244a5e8aa4e537bd38aeae4b073aa6020604051338152a1005b604051638dfc202b60e01b8152600490fd5b34610d0c576000366003190112610d0c576020600154604051908152f35b34610d0c5760a0366003190112610d0c576001600160401b03604435818111610d0c57613b7a9036906004016143ba565b9091606435908111610d0c57613b949036906004016143ba565b608435929091906001600160a01b0384168403610d0c57611fcf94613bb7614f6c565b613bbf614fae565b60243560043561477b565b34610d0c57602080600319360112610d0c5760043580151580613cd6575b613bf1906145e6565b6000526006602052604060002090600582018054613c0e8161467d565b92600d85019060005b838110613cb557505050506001830154600052600260205260046040600020015492600981015493848102948186041490151715611753576064613c8694613c94613c7160ff600b600887015496015460081c1695614628565b9560405197889760a0895260a0890190614331565b908782036020890152614197565b93836040870152613ca481614311565b606086015204111560808301520390f35b80600191600052838352604060002054613ccf82896146af565b5201613c17565b50600154811115613be8565b34610d0c576040366003190112610d0c576020613cfd61438e565b600435600052600e8252604060002060018060a01b03809216600052825260406000205416604051908152f35b34610d0c57613d3836614153565b90600052600d602052604060002090600052602052602060ff604060002054166040519015158152f35b34610d0c576040366003190112610d0c57613d7b61438e565b600435600052600360205260406000209060018060a01b031660005260205260606040600020600181015490600360ff60028301541691015490604051928352151560208301526040820152f35b34610d0c576020613dd936614153565b906000526002825260056040600020015414604051908152f35b34610d0c576020366003190112610d0c576004356000610180604051613e18816141cb565b828152826020820152826040820152606080820152826080820152606060a08201528260c08201528260e082015282610100820152826101208201528261014082015282610160820152015280151580614020575b613e76906145e6565b6000526006602052604060002060ff81549160018101549060018060a01b036002820154169083600482015416906006810154600782015490613f0b6005600885015494600981015496600a82015498600b8301549a60206040519e8f90613edd826141cb565b8152015260408d0152613ef260038301614541565b60608d0152613f0081614311565b60808c015201614628565b60a089015260c088015260e08701526101008601526101208501526101408401528181161515610160840152613f45828260081c16614311565b60081c16610180820152604051809160208252805160208301526020810151604083015260018060a01b036040820151166060830152610180613fc5613f9c60608401516101a060808701526101c08601906142ec565b6080840151613faa81614311565b60a086015260a0840151601f198683030160c0870152614331565b9160c081015160e085015260e0810151610100850152610100810151610120850152610120810151610140850152610140810151610160850152610160810151151582850152015161401681614311565b6101a08301520390f35b50600154811115613e6d565b34610d0c576020366003190112610d0c576004356001600160401b038111610d0c576140756020614062819336906004016142ab565b81604051938285809451938492016142c9565b8101600881520301902054604051908152f35b34610d0c57602080600319360112610d0c5760043560005260078152604060002090604051808383829554938481520190600052836000209260005b858282106140db5750505061122992500383614238565b85548452600195860195889550930192016140c4565b34610d0c576140ff36614153565b90600052600760205260406000208054821015610d0c57602091610feb91614169565b34610d0c5761413036614153565b90600052600b60205260406000208054821015610d0c57602091610feb91614169565b6040906003190112610d0c576004359060243590565b80548210156141815760005260206000200190600090565b634e487b7160e01b600052603260045260246000fd5b90815180825260208080930193019160005b8281106141b7575050505090565b8351855293810193928101926001016141a9565b6101a081019081106001600160401b038211176107b157604052565b608081019081106001600160401b038211176107b157604052565b606081019081106001600160401b038211176107b157604052565b604081019081106001600160401b038211176107b157604052565b90601f801991011681019081106001600160401b038211176107b157604052565b6001600160401b0381116107b157601f01601f191660200190565b92919261428082614259565b9161428e6040519384614238565b829481845281830111610d0c578281602093846000960137010152565b9080601f83011215610d0c578160206142c693359101614274565b90565b60005b8381106142dc5750506000910152565b81810151838201526020016142cc565b90602091614305815180928185528580860191016142c9565b601f01601f1916010190565b6003111561431b57565b634e487b7160e01b600052602160045260246000fd5b90808251908181526020809101926020808460051b8301019501936000915b8483106143605750505050505090565b909192939495848061437e600193601f198682030187528a516142ec565b9801930193019194939290614350565b602435906001600160a01b0382168203610d0c57565b600435906001600160a01b0382168203610d0c57565b9181601f84011215610d0c578235916001600160401b038311610d0c576020808501948460051b010111610d0c57565b60e435908115158203610d0c57565b602090602060408183019282815285518094520193019160005b828110614421575050505090565b83516001600160a01b031685529381019392810192600101614413565b906040600319830112610d0c5760043591602435906001600160401b038211610d0c5761446d916004016143ba565b9091565b6001600160401b0381116107b15760051b60200190565b81601f82011215610d0c578035916020916144a284614471565b936144b06040519586614238565b808552838086019160051b83010192808411610d0c57848301915b8483106144db5750505050505090565b82356001600160401b038111610d0c5786916144fc848480948901016142ab565b8152019201916144cb565b90600182811c92168015614537575b602083101461452157565b634e487b7160e01b600052602260045260246000fd5b91607f1691614516565b9060405191826000825461455481614507565b908184526020946001916001811690816000146145c45750600114614585575b50505061458392500383614238565b565b600090815285812095935091905b8183106145ac5750506145839350820101388080614574565b85548884018501529485019487945091830191614593565b9250505061458394925060ff191682840152151560051b820101388080614574565b156145ed57565b60405162461bcd60e51b8152602060048201526013602482015272141bdb1b08191bd95cc81b9bdd08195e1a5cdd606a1b6044820152606490fd5b90815461463481614471565b926146426040519485614238565b818452600090815260208082208186015b848410614661575050505050565b600183819261466f85614541565b815201920193019290614653565b9061468782614471565b6146946040519182614238565b82815280926146a5601f1991614471565b0190602036910137565b80518210156141815760209160051b010190565b156146ca57565b60405162461bcd60e51b815260206004820152600a6024820152694e6f742061637469766560b01b6044820152606490fd5b91908110156141815760051b81013590601e1981360301821215610d0c5701908135916001600160401b038311610d0c576020018260051b36038113610d0c579190565b91908110156141815760051b0190565b8054821015614181576000526003602060002091020190600090565b60001981146117535760010190565b909394929581600052602093600a85526040968760002091600b830154956147ac60ff8860181c16610f6281614311565b600684015442101580614bdb575b15614bae578951888101908a82528981526147d48161421d565b51902090600a8501549b6147f76147ea82614471565b8d51608052608051614238565b60805150806080515289608051019060051b820191368311610d0c578a90915b838310614b9e5750505050976000985b608051518a101561486d5761483e8a6080516146af565b51908181101561485c57600052885260018a6000205b990198614827565b90600052885260018a600020614854565b9092949796999a919395985003614b6c578851858101918883528a82015289815261489781614202565b5190209686600052600d85528860002088600052855260ff896000205416614b3d576001600160a01b03958616908115159081614b2f575b50614a965750600c91600c84019182548103614a62576000935b81851061497d5750505050509160609160ff600b7f819dc5e525bb5a6e7d54ad22c8e0bcb7ff68a36115f9fb243a957aa20c912bb09587600052600d84528960002089600052845289600020600184198254161790556009810161494d815461476c565b9055015460081c16968715614976576000915b81519815158952469089015242908801521694a4565b3391614960565b9492999890959660009b9298949b5b6149978d898c6146fc565b9050811015614a4d578b60016149c48f6149bd858f838f6149b7926146fc565b90614740565b3593614750565b5001541115614a1557808a6149f98f936149b78f958d8f976001988f8f600052815281600020908460005252600020956146fc565b356000528a528b600020614a0d815461476c565b90550161498c565b8a5162461bcd60e51b8152600481018a90526011602482015270496e76616c69642063616e64696461746560781b6044820152606490fd5b50969590989992949397919a600101936148e9565b895162461bcd60e51b815260048101879052600d60248201526c496e76616c696420766f74657360981b6044820152606490fd5b9794505050509250338414614af9577f053f424370c20bb13fefced6fe51c523881f3f777c0869eb3fe4759bcf9a4d8a9082600052600e84528060002033600052845280600020856001600160601b0360a01b82541617905551924284523393a4565b5162461bcd60e51b815260048101839052601060248201526f4e6f2073656c662d64656c656761746560801b6044820152606490fd5b60ff915060101c16386148cf565b885162461bcd60e51b815260048101869052600860248201526712d95e481d5cd95960c21b6044820152606490fd5b885162461bcd60e51b815260048101869052600b60248201526a496e76616c6964206b657960a81b6044820152606490fd5b82358152918101918b9101614817565b895162461bcd60e51b815260048101899052600660248201526554696d696e6760d01b6044820152606490fd5b5060078401544211156147ba565b818110614bf4575050565b60008155600101614be9565b8054600160401b8110156107b157614c1d91600182018155614169565b60018060a09493941b038084549260031b9316831b921b1916179055565b8054600160401b8110156107b157614c5891600182018155614169565b819291549060031b91821b91600019901b1916179055565b15614c7757565b60405162461bcd60e51b815260206004820152601b60248201527f4f7267616e697a6174696f6e20646f6573206e6f7420657869737400000000006044820152606490fd5b90604051918281549182825260209260208301916000526020600020936000905b828210614cf35750505061458392500383614238565b85546001600160a01b031684526001958601958895509381019390910190614cdd565b15614d1d57565b60405162461bcd60e51b815260206004820152602260248201527f4f6e6c792061646d696e2063616e20706572666f726d2074686973206163746960448201526137b760f11b6064820152608490fd5b15614d7457565b60405162461bcd60e51b81526020600482015260146024820152732737ba1030b71030b1ba34bb329036b2b6b132b960611b6044820152606490fd5b8015611753576000190190565b356001600160a01b0381168103610d0c5790565b15614dd857565b60405162461bcd60e51b815260206004820152600b60248201526a2737ba1031b932b0ba37b960a91b6044820152606490fd5b614e158154614507565b9081614e1f575050565b81601f60009311600114614e31575055565b908083918252614e50601f60208420940160051c840160018501614be9565b5555565b90600160401b81116107b157815491818155828210614e7257505050565b600052602060002091820191015b818110614e8b575050565b80614e97600192614e0b565b01614e80565b15614ea457565b60405162461bcd60e51b815260206004820152602660248201527f4f6e6c7920706f6c6c2063726561746f722063616e20617574686f72697a6520604482015265766f7465727360d01b6064820152608490fd5b6001600160a01b03908116908115614f535760008051602061515f83398151915280546001600160a01b031981168417909155167f8be0079c531659141344cd1fd0a4f28419497f9722a3daafe3b4186f6b6457e0600080a3565b604051631e4fbdf760e01b815260006004820152602490fd5b7f9b779b17422d0df92223018b32b4d1fa46e071723d6817e2486d003becc55f006002815414614f9c5760029055565b604051633ee5aeb560e01b8152600490fd5b60ff60008051602061517f8339815191525416614fc757565b60405163d93c066560e01b8152600490fd5b60008051602061515f833981519152546001600160a01b03163303614ffa57565b60405163118cdaa760e01b8152336004820152602490fd5b600090808252602060066020526040906040842090600b820161010061ff001982541617905584928580600585015493600d8601915b858110615093575050505050507f27ec031244a01dc1058ca7fb098d5fd6923db31318aad64e615f4359429b25679160016060920154946040519182526020820152426040820152a3565b808452828252848420548a81116150ae575b50600101615048565b995096508660016150a5565b60ff7ff0c57e16840df040f15088dc2f81fe391c3923bec73e23a9662efc9c229c6a005460401c16156150e957565b604051631afcd79f60e31b8152600490fd5b90615122575080511561511057602081519101fd5b60405163d6bda27560e01b8152600490fd5b81511580615155575b615133575090565b604051639996b31560e01b81526001600160a01b039091166004820152602490fd5b50803b1561512b56fe9016d09d72d40fdae2fd8ceac6b6234c7706214fd39c1cd1e609a0528c199300cd5ed15c6e187e77e9aee88184c21f4f2182ab5827cb3b7e07fbedcd63f03300a26469706673582212206e916ec9e5e115015cd182295a3c43d4b9918db98deef28bab2032b1b9f201d564736f6c63430008160033",
  "linkReferences": {},
  "deployedLinkReferences": {}
}