{
  "_format": "hh-sol-artifact-1",
  "contractName": "BatchVoteSubmitter",
  "sourceName": "contracts/BatchVoteSubmitter.sol",
  "abi": [
    {
      "inputs": [
        {
          "internalType": "address",
          "name": "_safeVoteAddress",
          "type": "address"
        }
      ],
      "stateMutability": "nonpayable",
      "type": "constructor"
    },
    {
      "anonymous": false,
      "inputs": [
        {
          "indexed": true,
          "internalType": "uint256",
          "name": "electionId",
          "type": "uint256"
        },
        {
          "indexed": false,
          "internalType": "uint256",
          "name": "voteCount",
          "type": "uint256"
        },
        {
          "indexed": true,
          "internalType": "address",
          "name": "relayer",
          "type": "address"
        }
      ],
      "name": "BatchProcessed",
      "type": "event"
    },
    {
      "anonymous": false,
      "inputs": [
        {
          "indexed": true,
          "internalType": "address",
          "name": "relayer",
          "type": "address"
        }
      ],
      "name": "RelayerAdded",
      "type": "event"
    },
    {
      "anonymous": false,
      "inputs": [
        {
          "indexed": true,
          "internalType": "address",
          "name": "relayer",
          "type": "address"
        }
      ],
      "name": "RelayerRemoved",
      "type": "event"
    },
    {
      "anonymous": false,
      "inputs": [
        {
          "indexed": true,
          "internalType": "address",
          "name": "voter",
          "type": "address"
        },
        {
          "indexed": true,
          "internalType": "uint256",
          "name": "electionId",
          "type": "uint256"
        },
        {
          "indexed": false,
          "internalType": "bytes32",
          "name": "voteHash",
          "type": "bytes32"
        }
      ],
      "name": "VoteQueued",
      "type": "event"
    },
    {
      "inputs": [
        {
          "internalType": "address",
          "name": "relayer",
          "type": "address"
        }
      ],
      "name": "addRelayer",
      "outputs": [],
      "stateMutability": "nonpayable",
      "type": "function"
    },
    {
      "inputs": [
        {
          "internalType": "address",
          "name": "",
          "type": "address"
        }
      ],
      "name": "authorizedRelayers",
      "outputs": [
        {
          "internalType": "bool",
          "name": "",
          "type": "bool"
        }
      ],
      "stateMutability": "view",
      "type": "function"
    },
    {
      "inputs": [
        {
          "internalType": "address",
          "name": "voter",
          "type": "address"
        }
      ],
      "name": "getNonce",
      "outputs": [
        {
          "internalType": "uint256",
          "name": "",
          "type": "uint256"
        }
      ],
      "stateMutability": "view",
      "type": "function"
    },
    {
      "inputs": [
        {
          "internalType": "uint256",
          "name": "electionId",
          "type": "uint256"
        },
        {
          "internalType": "bytes32",
          "name": "voterKey",
          "type": "bytes32"
        },
        {
          "internalType": "uint256[][]",
          "name": "votes",
          "type": "uint256[][]"
        },
        {
          "internalType": "address",
          "name": "voter",
          "type": "address"
        },
        {
          "internalType": "uint256",
          "name": "nonce",
          "type": "uint256"
        }
      ],
      "name": "hashVote",
      "outputs": [
        {
          "internalType": "bytes32",
          "name": "",
          "type": "bytes32"
        }
      ],
      "stateMutability": "pure",
      "type": "function"
    },
    {
      "inputs": [
        {
          "internalType": "bytes32",
          "name": "voteHash",
          "type": "bytes32"
        }
      ],
      "name": "isVoteProcessed",
      "outputs": [
        {
          "internalType": "bool",
          "name": "",
          "type": "bool"
        }
      ],
      "stateMutability": "view",
      "type": "function"
    },
    {
      "inputs": [
        {
          "internalType": "address",
          "name": "",
          "type": "address"
        }
      ],
      "name": "nonces",
      "outputs": [
        {
          "internalType": "uint256",
          "name": "",
          "type": "uint256"
        }
      ],
      "stateMutability": "view",
      "type": "function"
    },
    {
      "inputs": [],
      "name": "owner",
      "outputs": [
        {
          "internalType": "address",
          "name": "",
          "type": "address"
        }
      ],
      "stateMutability": "view",
      "type": "function"
    },
    {
      "inputs": [
        {
          "internalType": "bytes32",
          "name": "",
          "type": "bytes32"
        }
      ],
      "name": "processedVotes",
      "outputs": [
        {
          "internalType": "bool",
          "name": "",
          "type": "bool"
        }
      ],
      "stateMutability": "view",
      "type": "function"
    },
    {
      "inputs": [
        {
          "internalType": "address",
          "name": "relayer",
          "type": "address"
        }
      ],
      "name": "removeRelayer",
      "outputs": [],
      "stateMutability": "nonpayable",
      "type": "function"
    },
    {
      "inputs": [],
      "name": "safeVote",
      "outputs": [
        {
          "internalType": "contract SafeVoteV2",
          "name": "",
          "type": "address"
        }
      ],
      "stateMutability": "view",
      "type": "function"
    },
    {
      "inputs": [
        {
          "components": [
            {
              "internalType": "uint256",
              "name": "electionId",
              "type": "uint256"
            },
            {
              "internalType": "bytes32",
              "name": "voterKey",
              "type": "bytes32"
            },
            {
              "internalType": "bytes32[]",
              "name": "merkleProof",
              "type": "bytes32[]"
            },
            {
              "internalType": "uint256[][]",
              "name": "votes",
              "type": "uint256[][]"
            },
            {
              "internalType": "address",
              "name": "voter",
              "type": "address"
            },
            {
              "internalType": "uint256",
              "name": "nonce",
              "type": "uint256"
            },
            {
              "internalType": "bytes",
              "name": "signature",
              "type": "bytes"
            }
          ],
          "internalType": "struct BatchVoteSubmitter.SignedVote[]",
          "name": "signedVotes",
          "type": "tuple[]"
        }
      ],
      "name": "submitBatch",
      "outputs": [],
      "stateMutability": "nonpayable",
      "type": "function"
    },
    {
      "inputs": [
        {
          "internalType": "address",
          "name": "newOwner",
          "type": "address"
        }
      ],
      "name": "transferOwnership",
      "outputs": [],
      "stateMutability": "nonpayable",
      "type": "function"
    },
    {
      "inputs": [
        {
          "internalType": "bytes32",
          "name": "messageHash",
          "type": "bytes32"
        },
        {
          "internalType": "bytes",
          "name": "signature",
          "type": "bytes"
        },
        {
          "internalType": "address",
          "name": "expectedSigner",
          "type": "address"
        }
      ],
      "name": "verifySignature",
      "outputs": [
        {
          "internalType": "bool",
          "name": "",
          "type": "bool"
        }
      ],
      "stateMutability": "pure",
      "type": "function"
    }
  ],
  "bytecode": "0x60803461009557601f610fa438819003918201601f19168301916001600160401b0383118484101761009a5780849260209460405283398101031261009557516001600160a01b038116908190036100955760018060a01b031990816000541617600055339060045416176004553360005260036020526040600020600160ff19825416179055604051610ef390816100b18239f35b600080fd5b634e487b7160e01b600052604160045260246000fdfe6080604052600436101561001257600080fd5b60003560e01c80630262dc48146100dd57806329e295c5146100d85780632d0335ab146100bf57806331cd4199146100d3578063491037e4146100c9578063585fb384146100ce57806360b718aa146100c957806360f0a5ac146100c45780637ecebe00146100bf5780638da5cb5b146100ba578063dd39f00d146100b5578063ec3c1284146100b05763f2fde38b146100ab57600080fd5b6108cf565b610558565b6104df565b6104b6565b6102f1565b610440565b6103db565b610417565b610375565b6102af565b610245565b634e487b7160e01b600052604160045260246000fd5b67ffffffffffffffff811161010c57604052565b6100e2565b6060810190811067ffffffffffffffff82111761010c57604052565b90601f8019910116810190811067ffffffffffffffff82111761010c57604052565b67ffffffffffffffff811161010c5760051b60200190565b9291926101738261014f565b91604094610184604051948561012d565b839582855260208095019160059360051b85019481861161022f5780935b8685106101b3575050505050505050565b843567ffffffffffffffff811161022f57820183601f8201121561022f578035906101dd8261014f565b916101ea8751938461012d565b8083528a808401918a1b8301019186831161022f57918b8094929593015b81811061021f5750508293508152019401936101a2565b80358652948401948c9401610208565b600080fd5b6001600160a01b0381160361022f57565b3461022f5760a036600319011261022f5760443567ffffffffffffffff811161022f573660238201121561022f576102a761028c6020923690602481600401359101610167565b60643561029881610234565b60843591602435600435610955565b604051908152f35b3461022f57602036600319011261022f576004356102cc81610234565b60018060a01b03166000526003602052602060ff604060002054166040519015158152f35b3461022f57602036600319011261022f5760043561030e81610234565b60018060a01b031660005260016020526020604060002054604051908152f35b92919267ffffffffffffffff821161010c5760405191610358601f8201601f19166020018461012d565b82948184528183011161022f578281602093846000960137010152565b3461022f57606036600319011261022f5760243567ffffffffffffffff811161022f573660238201121561022f576103d16103bc602092369060248160040135910161032e565b604435906103c982610234565b600435610a3b565b6040519015158152f35b3461022f57602036600319011261022f576004356000526002602052602060ff604060002054166040519015158152f35b600091031261022f57565b3461022f57600036600319011261022f576000546040516001600160a01b039091168152602090f35b3461022f57602036600319011261022f5760043561045d81610234565b6004546001600160a01b0391906104779083163314610b79565b166000818152600360205260408120805460ff19169055907f10e1f7ce9fd7d1b90a66d13a2ab3cb8dd7f29f3f8d520b143b063ccfbab6906b8280a280f35b3461022f57600036600319011261022f576004546040516001600160a01b039091168152602090f35b3461022f57602036600319011261022f576004356104fc81610234565b6004546001600160a01b0391906105169083163314610b79565b166000818152600360205260408120805460ff19166001179055907f03580ee9f53a62b7cb409a2cb56f9be87747dd15017afc5cef6eef321e4fb2c58280a280f35b3461022f5760208060031936011261022f576004906004359167ffffffffffffffff9182841161022f573660238501121561022f57836004013592831161022f576024840193602436918560051b01011161022f57600093338552600360205260409160ff8387205416156108925784151580610887575b6105d990610bb1565b6105e38583610bf2565b35938695875b81811061062d578888887fa9e33b578335ceeacbd5c8bba9f0b33228ed8e53e1023a8310530cd1449ed7f189610620841515610e22565b519283523392602090a380f35b85610639828488610c23565b80356106468a8214610c45565b60608201918c8189013561065a8584610c83565b969095610687608086019861066e8a610cb9565b61068060a08901359a8b933691610167565b868a610955565b966106a661069f896000526002602052604060002090565b5460ff1690565b610876576106de6106da6106cc6106d48c6106c460c08c018c610cc6565b939091610cb9565b92369161032e565b8b610a3b565b1590565b610876576107086106ee8a610cb9565b6001600160a01b0316600090815260016020526040902090565b540361086657610732610725886000526002602052604060002090565b805460ff19166001179055565b61073e6106ee89610cb9565b6107488154610d0f565b9055835461076e90610766906001600160a01b031693870187610c83565b929096610c83565b91833b15610862578f889387938f9361079a93519a8b998a988997630d110da360e21b89528801610d47565b03925af19081610849575b506107ee57506106ee600193926107d66107cc6107db946000526002602052604060002090565b805460ff19169055565b610cb9565b6107e58154610e15565b90555b016105e9565b907f079544d0ba50c3a881c4441f2b015578109e63777aefacaccedf4545e85f466d610841610820600196959d610d0f565b9c610830878060a01b0391610cb9565b8c5194855216929081906020820190565b0390a36107e8565b8061085661085c926100f8565b8061040c565b386107a5565b8580fd5b50505050505050506001906107e8565b5050505050505050506001906107e8565b5060648511156105d0565b825162461bcd60e51b81526020600482015260166024820152752737ba1030baba3437b934bd32b2103932b630bcb2b960511b6044820152606490fd5b3461022f57602036600319011261022f576004356108ec81610234565b600454906001600160a01b03906109063383851614610b79565b1690811561091e576001600160a01b03191617600455005b60405162461bcd60e51b815260206004820152600f60248201526e496e76616c6964206164647265737360881b6044820152606490fd5b909392916040519384926020908185019760c08601918952604086015260a06060860152835180915260e08501918060e08360051b8801019501926000906000915b8483106109d7575050506001600160a01b039096166080860152506109d194506109be9050565b60a083015203601f19810183528261012d565b51902090565b9193959750918094989660df198b820301845289519082808351928381520192019084905b808210610a225750505090806001929a0193019301909289979593989698949294610997565b91938060019294865181520194019201879392916109fc565b60405160208101917f19457468657265756d205369676e6564204d6573736167653a0a3332000000008352603c820152603c8152610a7881610111565b5190206041825103610b34576020916000918291848101519260606040830151920151901a92601b8410610b1d575b90610aeb91610ac560ff8616601b8114908115610b12575b50610e71565b604051948594859094939260ff6060936080840197845216602083015260408201520152565b838052039060015afa15610b0d576000516001600160a01b0390811691161490565b610e09565b601c91501438610abf565b9290610b2b610aeb92610e5f565b93909150610aa7565b60405162461bcd60e51b815260206004820152601860248201527f496e76616c6964207369676e6174757265206c656e67746800000000000000006044820152606490fd5b15610b8057565b60405162461bcd60e51b81526020600482015260096024820152682737ba1037bbb732b960b91b6044820152606490fd5b15610bb857565b60405162461bcd60e51b8152602060048201526012602482015271496e76616c69642062617463682073697a6560701b6044820152606490fd5b9015610c0d5780359060de198136030182121561022f570190565b634e487b7160e01b600052603260045260246000fd5b9190811015610c0d5760051b8101359060de198136030182121561022f570190565b15610c4c57565b60405162461bcd60e51b815260206004820152600f60248201526e4d6978656420656c656374696f6e7360881b6044820152606490fd5b903590601e198136030182121561022f570180359067ffffffffffffffff821161022f57602001918160051b3603831361022f57565b35610cc381610234565b90565b903590601e198136030182121561022f570180359067ffffffffffffffff821161022f5760200191813603831361022f57565b634e487b7160e01b600052601160045260246000fd5b6000198114610d1e5760010190565b610cf9565b81835290916001600160fb1b03831161022f5760209260051b809284830137010190565b9695929093610d6c92959488526020958689015260a0604089015260a0880191610d23565b928584036060870152818452808401936005828460051b83010195856000935b868510610da55750505050505050506080600091930152565b9091929394959697601f198282030184528835601e198436030181121561022f57830187810191903567ffffffffffffffff811161022f5780871b3603831361022f57610df789928392600195610d23565b9a019401950193929695949190610d8c565b6040513d6000823e3d90fd5b8015610d1e576000190190565b15610e2957565b60405162461bcd60e51b815260206004820152600e60248201526d4e6f2076616c696420766f74657360901b6044820152606490fd5b60ff601b9116019060ff8211610d1e57565b15610e7857565b60405162461bcd60e51b815260206004820152601960248201527f496e76616c6964207369676e617475726520762076616c7565000000000000006044820152606490fdfea264697066735822122021026fd34e3532477a929008f4fade9dd0255299c46473a933e37d929d4f6f8064736f6c63430008160033",
  "linkReferences": {},
  "deployedLinkReferences": {}
}